:030000000213EBFD
:0C13EB00787FE4F6D8FD75813E020D38D5
:100D3800E4F508120EB51214027FDC7E0512133A90
:100D48001212CD751710E4FB7D02FF1210577517AC
:100D5800107B017D027F101210577517107B027DE2
:100D6800027F201210577517107B037D027F301207
:100D780010577517107B047D027F401210577517A6
:100D8800107B057D027F701210570508E50875F085
:100D98003284E5F07014120FDCE4FBFA7920784114
:100DA800120A9B120BDF8E098F0AAE09AF0A7C006C
:100DB8007D0A120CF48C0B8D0CAE09AF0A7C007DF9
:100DC8000A120CF48E0D8F0E751802751910AB0EE1
:100DD800AA0D7D027F50120F537521107B2E7D02C4
:100DE8007F60120E00751801751910AB0CAA0B7DE7
:080DF800027F66120F53809286
:0B13F700EF1FAC0670011E4C70F622C8
:10133A00D3EF9400EE940040147D6E7C00ED1D7096
:0D134A00011CED4C70F7EF1F70E61E80E3F4
:011357002273
:061402001213A70211E71E
:1013A700C2B77F4B7E001213F7D2B77F027E0002CF
:0213B70013F72A
:1011E700E4F51B30B712E51BC39414500B051B7FA6
:1011F700017E001213F780EBE51BC3941440037FB5
:101207000122E4F51B20B712E51BC39414500B050C
:101217001B7F017E001213F780EBE51BC39414407C
:06122700037F01227F009D
:01122D00229E
:100FDC00E4FFF518F519F51A1213DB1213A7121109
:100FEC00E77FCC12122E7FBE12122E1212F48F1823
:100FFC001212F4EFFE7C00E42518F51AEC3EF519FC
:10100C0054F8FEEEB4F821E51AF4FFE519F4FEEFFE
:10101C002401F51AE43EF519FCAD1AE4120BA6E412
:10102C00FBFA798078BD800FAC19AD1AE4120BA6CF
:10103C00E4FBFA7980783D120A9B8F178E168D157A
:0A104C008C14AF17AE16AD15AC14EE
:011056002277
:1013DB001213A71211E77FCC12122E7F4402122E8A
:10131A00E4F51DC2B70000D2B7000030B705751D4D
:0F132A00018003E4F51D7F057E001213F7AF1D50
:011339002291
:1012F400E4F51BF51CFFF51B12131AEFC43333334B
:101304005480FEE51CC3134EF51C051BE51BC3945A
:051314000840E5AF1CDC
:0113190022B1
:02122E008F1B14
:10123000E4F51CF51DF51CE51B5401F51DE51BC36C
:1012400013F51BE51D600FC2B70000D2B77F067E05
:10125000001213F7800DC2B77F067E001213F7D27B
:0C126000B70000051CE51CC3940840CB3F
:01126C00225F
:100003000000000000000000002F000000000700B7
:10001300070000147F147F1400242A7F2A12006231
:1000230064081323003649552250000005030000DD
:1000330000001C224100000041221C000014083E65
:1000430008140008083E0808000000A0600000082B
:10005300080808080000606000000020100804027F
:10006300003E5149453E0000427F4000004261513D
:100073004946002141454B31001814127F100027D7
:1000830045454539003C4A4949300001710905039A
:1000930000364949493600064949291E00003636CB
:1000A300000000005636000000081422410000142E
:1000B300141414140000412214080002015109060B
:1000C30000324959513E007C1211127C007F49498C
:1000D3004936003E41414122007F4141221C007FBD
:1000E30049494941007F09090901003E4149497ACB
:1000F300007F0808087F0000417F41000020404145
:100103003F01007F08142241007F40404040007FB0
:10011300020C027F007F0408107F003E4141413EF4
:10012300007F09090906003E4151215E007F09193C
:1001330029460046494949310001017F0101003F39
:100143004040403F001F2040201F003F4038403FB9
:10015300006314081463000708700807006151491D
:10016300454300007F41410000552A552A550000B0
:1001730041417F000004020102040040404040402E
:10018300000001020400002054545478007F4844C6
:10019300443800384444442000384444487F0038FD
:1001A3005454541800087E0901020018A4A4A47C26
:1001B300007F080404780000447D400000408084F0
:1001C3007D00007F102844000000417F4000007C38
:1001D30004180478007C0804047800384444443844
:1001E30000FC242424180018242418FC007C080490
:1001F300040800485454542000043F444020003C69
:100203004040207C001C2040201C003C4030403CEF
:10021300004428102844001CA0A0A07C004464547F
:100223004C441414141414140000000000000000C3
:100233000000000000000000000000F800000000C3
:10024300000000333000000000100C06100C060004
:10025300000000000000000040C07840C07840006B
:10026300043F04043F040400007088FC08300000CD
:10027300001820FF211E0000F008F000E018000025
:1002830000211C031E211E0000F0088870000000DE
:100293001E2123241927211010160E000000000030
:1002A3000000000000000000000000E0180402004D
:1002B300000000071820400000020418E0000000BE
:1002C3000040201807000000404080F080404000BC
:1002D3000202010F01020200000000F00000000012
:1002E3000101011F010101000000000000000000E6
:1002F30080B070000000000000000000000000005B
:1003030000010101010101010000000000000000E3
:10031300003030000000000000000000806018047E
:10032300006018060100000000E010080810E0005B
:10033300000F102020100F00001010F80000000024
:100343000020203F2020000000700808088870006B
:1003530000302824222130000030088888483000EB
:100363000018202020110E000000C02010F800000B
:1003730000070424243F240000F8088888080800A4
:100383000019212020110E0000E0108888180000B9
:10039300000F112020110E0000380808C83808008B
:1003A3000000003F0000000000708808088870000B
:1003B300001C222121221C0000E010080810E0008C
:1003C3000000312222110F00000000C0C000000015
:1003D300000000303000000000000080000000003A
:1003E3000000806000000000000080402010080032
:1003F30000010204081020004040404040404000FB
:1004030004040404040404000008102040800000D5
:100413000020100804020100007048080808F000DA
:100423000000003036010000C030C828E810E000AA
:100433000718272423140B000000C038E000000035
:10044300203C23020227382008F88888887000009F
:10045300203F202020110E00C03008080808380073
:10046300071820202010080008F808080810E000EA
:10047300203F202020100F0008F88888E80810008B
:10048300203F20202320180008F88888E80810005F
:10049300203F200003000000C03008080838000097
:1004A30007182020221E020008F808000008F80898
:1004B300203F210101213F20000808F8080800001F
:1004C3000020203F2020000000000808F808080052
:1004D300C08080807F00000008F888C028180800CA
:1004E300203F20012638200008F808000000000003
:1004F300203F20202020300008F8F800F8F80800FA
:10050300203F003F003F200008F830C00008F808F3
:10051300203F200007183F00E01008080810E00003
:100523000F10202020100F0008F808080808F0001A
:10053300203F210101010000E01008080810E0003D
:100543000F18242438504F0008F8888888887000D2
:10055300203F2000030C3020007088080808380072
:100563000038202121221C00180808F80808180068
:100573000000203F2000000008F808000008F808E9
:10058300001F202020201F000878880000C838089A
:10059300000007380E010000F80800F80008F80012
:1005A300033C0700073C03000818688080681808AC
:1005B30020302C03032C30200838C800C83808002A
:1005C3000000203F2000000010080808C838080079
:1005D3002038262120201800000000FE020202001D
:1005E3000000007F40404000000C30C000000000CD
:1005F300000000010638C00000020202FE000000F5
:10060300004040407F00000000000402020204009A
:1006130000000000000000000000000000000000D7
:1006230080808080808080800002020400000000BF
:1006330000000000000000000000808080800000B7
:100643000019242222223F2008F8008080000000A5
:10065300003F112020110E00000000808080000068
:10066300000E112020201100000000808088F80077
:10067300000E112020103F200000808080800000A9
:10068300001F222222221300008080F0888888180D
:100693000020203F20200000000080808080800018
:1006A300006B94949493600008F8008080800000AD
:1006B300203F210000203F20008098980000000088
:1006C3000020203F202000000000008098980000B8
:1006D30000C08080807F000008F8000080808000D8
:1006E300203F24022D302000000808F800000000FD
:1006F3000020203F202000008080808080808000B8
:10070300203F20003F20003F808000808080000049
:10071300203F210000203F200000808080800000D7
:10072300001F202020201F00808000808000000008
:1007330080FFA12020110E00000000808080800037
:10074300000E112020A0FF80808080008080800028
:1007530020203F2120000100000080808080800055
:100763000033242424241900008080E080800000CA
:100773000000001F20200000808000000080800017
:10078300001F202020103F20808080000080808078
:1007930000010E3008060100808000800080808008
:1007A3000F300C030C300F0000808000808080002D
:1007B3000020312E0E312000808080000080808058
:1007C30080818E7018060100008080808080800008
:1007D3000021302C2221300000000000807C020226
:1007E30000000000003F404000000000FF00000048
:1007F30000000000FF0000000002027C80000000F7
:100803000040403F00000000000601010202040412
:1008130000000000000000000000F010101010FFA6
:1008230010101010F000000000000F04040404FF77
:10083300040404040F0000004040405F5555557503
:100843005555555F404040000040200F09498979C4
:100853000909090F2040000000FE02424ACA4A4A21
:10086300CA4A4A4202FE000000FF40504C43404047
:100873004F50505C40FF00000000F888888888FFD4
:1008830088888888F800000000001F080808087F8F
:10089300888888889F80F00080828282828282E2B8
:1008A300A2928A8682808000000000000040807F40
:1008B3000000000000000000101010FF10900888D6
:1008C3008888FF88888808000444827F01808040EC
:1008D300432C1028468180000010101010D030FFE8
:1008E30030D0121C1010000010080402010000FF99
:1008F3000000010204081000008060F8074020187F
:100903000F08C80808281800010000FF00100C0396
:1009130040807F00010618001010F01F10F00080C7
:100923008282E2928A8680004022150816610000C6
:1009330040807F0000000000000000000000000075
:100943000000000000000000000058380000000014
:1009530000000000000000000000F8080808080973
:100963000E0808080808000080601F00000000004F
:100973000000000000000000008060F8070004246D
:100983002425262424240400010000FF000000F98C
:100993004949494949F900000202FE9292FE0202C6
:1009A300FC04040404FC000008180F0804FF04807E
:1009B300631901010933C00000FE225A86100C247A
:1009C3002425262424140C0000FF04080780413149
:1009D3000F01013F41417100004042445840407FB4
:1009E30040405048C600000000404444444444444E
:1009F30044444444FF0000000808E8292E28E8087E
:100A030008C80C0BE80808000000FF0949897F00AB
:100A1300000F40807F0000001060028C0000FE92F7
:100A230092929292FE00000004047E01407E4242B4
:100A33007E427E42427E40000000FC242424FC25AA
:100A43002624FC242424040040308F80844C552524
:100A53002525554C80808000000000000000000028
:100A63000000000000000000000036360000000017
:100A73000000000000000000060909E6F80C04026B
:100A830002020202041E0000000000071F30204083
:080A930040404040201000002B
:101376008F3DE53D7006FD7FA612127EE53DB40168
:0913860007E4FD7FA712127E228C
:1012A6008F3EE53E700DFD7FC812127EE4FD7FA1E4
:1012B60012127EE53EB4010EE4FD7FC012127EE4FA
:0712C600FD7FA012127E2241
:10126D00F583E5822BF582E5833AF583E493FF7DE3
:01127D00016F
:10127E00ED6004D2938002C293C294E4FEC290EF5A
:10128E0030E704D2918002C291D290EF25E0FF0E9A
:07129E00BE08EAD294D293CE
:0112A5002226
:10135800AC07ED24B0FFE4FD12127EEC54F0C45447
:0E1368000F4410FF12127EEC540FFF02127E93
:1013B900E4FD7F8D12127E7F1412127E7FAF02121E
:0113C9007EA5
:1013CA00E4FD7F8D12127E7F1012127E7FAE021212
:0113DA007E94
:1012CD00E4FCEC24B0FFE4FD12127EE4FF12127E6A
:1012DD007F1012127EE4FB7D01E4FF12127E0BBB28
:0612ED0080F50CBC08DCDA
:0112F30022D8
:060E00008F1E8D1FA903E7
:100E0600E4F522E521C313F523E4FBFAE521B40852
:100E160008752400752506802CE521131313541F2D
:100E2600FF7E00E52154077C0060047D0180027D81
:100E360000ED2FFFEC3EFEE521C313FD7C00120CF6
:100E46008D8E248F25E924E0F522AD1FAF1E1213E7
:100E560058E4FAFBC3EB9525EA95245051E523FDAA
:100E66007C00AF03AE02120C9FED4C700FE52164BF
:100E7600086009AD1F051FAF1E121358E521B408FF
:100E86001075F006E522A42403F582E5F03400800F
:100E960013E521B4101875F010E522A4242BF58271
:0E0EA600E5F0340212126D0BBB00010A80A6AB
:010EB400221B
:04138F008F1EA905FF
:101393007F017E00AD0119ED6009AD1E7C00120CCA
:0313A3008D80F149
:0113A6002224
:080F53008F148D158A168B170F
:100F5B00E4F51CF51DE519B40803751C02E4F51A3C
:100F6B00E51AC395185069C3E518951A14FD7F0A45
:100F7B0012138FAC16AD17CFCDCFCECCCE120C9F9C
:100F8B007C007D0A120C9F8D1BE51D7025E5181446
:100F9B00FFE51AC39F501BE51B7014E519C31325FE
:100FAB001C851AF0A42514FF8519217B2080187548
:100FBB001D01E519C313251C851AF0A42514FFE5A3
:100FCB001B2430FB851921AD15120E00051A8090DC
:010FDB0022F3
:0A119E008F308D318B328A33893493
:1011A800E4F536AB32AA33A934853682758300124A
:1011B8000C60602AAF3605368F82758300120C608A
:1011C800FB853521AD31AF30120E00E535B408048A
:0E11D80074068004E535C3132530F53080C55C
:0111E60022E6
:061057008F148D158B16AD
:10105D00E517131313541FFF7E00E51754077C008B
:10106D0060047D0180027D00ED2FFFEC3EFEAD178B
:10107D007C00120C8D8E188F19E4FBFAC3EB9519B9
:10108D00EA95185035E517FD7C00AF03AE02120C42
:10109D009FED4C7009AD150515AF14121358E517DA
:1010AD00B41017E516C43354E024DBF582E434099B
:0A10BD0012126D0BBB00010A80C285
:0110C7002206
:0610C8008F378D388B39D3
:1010CE00E53A131313541FFF7E00E53A54077C00D4
:1010DE0060047D0180027D00ED2FFFEC3EFEAD3AF7
:1010EE007C00120C8D8E3B8F3CE4FBFAC3EB953CDF
:1010FE00EA953B5035E53AFD7C00AF03AE02120C8B
:10110E009FED4C7009AD380538AF37121358E53ADC
:10111E00B41017E539C43354E024FBF582E43408E7
:0A112E0012126D0BBB00010A80C213
:011138002294
:061139008F268D278B2894
:10113F00E4F52DF52EE529131313541FFFE529545C
:10114F000760047E0180027E00EF2EF529E4F52F63
:10115F00E52FC395295037E52F2527FDAF2612130D
:10116F0058E4FCECC395285021AB2AAA2BA92C05D7
:10117F002EE52EAE2D7002052D14F5828E83120CE6
:0E118F0060FF7D0112127E0C80D9052F80C2F8
:01119D00222F
:100EB500C2927FC87E0012133AD292E4FD7FAE1231
:100EC500127EE4FF12127E7F1012127E7F401212F4
:100ED5007E7F8112127E7FCF12127E7FA112127E3B
:100EE5007FC812127E7FA612127E7FA812127E7F05
:100EF5003F12127E7FD312127EE4FF12127E7FD53F
:100F050012127E7F8012127E7FD912127E7FF1121D
:100F1500127E7FDA12127E7F1212127E7FDB121290
:100F25007E7F4012127E7F2012127E7F0212127E79
:100F35007F8D12127E7F1412127E7FA412127E7F85
:0E0F4500A612127E1212CDE4FD7FAF02127EC4
:100A9B00EC4D6011E8497017ED33EC3304600DE455
:100AAB00FCFFFEFD22E933E8330470F8020C4B1215
:100ABB000C1658046009E4CC248150062850090216
:100ACB000C55284003020C52C0E0EB4A7044B9802D
:100ADB0006D0E0FB020C41EF4E701CBD8008EBFF13
:100AEB00EAFEE9FD80EBE98DF0A4FEE5F0020B8454
:100AFB00E9CDF9EAFEEBFFEF89F0A4FCE5F0CE8936
:100B0B00F0A42EFFE435F0CD89F0A42DFEE435F0F2
:100B1B008067EF4E7005BD80D780C3EF8BF0A4AC20
:100B2B00F0EE8BF0A42CFCE435F0F8EF8AF0A42C5B
:100B3B00E5F038FCE433CB8DF0A42CFCE5F03BF86E
:100B4B00EE8AF0A42CFCE5F038F8E433CF89F0A45E
:100B5B002CFCE5F038CF3400CE89F0A42FFFE5F064
:100B6B003EFEE433C98DF0A42EFEE5F039CD8AF0BC
:100B7B00A42FFFE5F03EFEE43DFD33D0E0FB500734
:100B8B000BBB000F020C55EC2CFCEF33FFEE33FECE
:060B9B00ED33FD020C2DFC
:100BA10075F020800E75F010800575F0087D007ECF
:100BB100007F003392D530D503120D2AEC3340105B
:100BC100EF33FFEE33FEED33FDEC33FCD5F0ED22D8
:0E0BD100E5F0247EA2D513CC92E7CDCEFF2214
:100BDF00EDD2E7CD33EC3392D524814006E4FFFE0E
:100BEF00FDFC22FCE4CFCECDCC24E0501174FF806D
:100BFF00EDC3CC13CCCD13CDCE13CECF13CF04700A
:070C0F00F030D5DE020D2AD2
:100C1600E9D2E7C933E833F892D5EDD2E7CD33EC24
:070C260033FC5002B2D5229D
:100C2D00EC30E7100FBF000C0EBE00080DBD000428
:100C3D000BEB6014A2D5EB13FCED92E7FD2274FFD4
:100C4D00FCFDFEFF22E480F8A2D574FF13FC7D802D
:030C5D00E480EF41
:100C6000BB010CE58229F582E5833AF583E0225049
:100C700006E92582F8E622BBFE06E92582F8E22293
:0D0C8000E58229F582E5833AF583E49322AD
:100C8D00EF8DF0A4A8F0CF8CF0A428CE8DF0A42E7B
:020C9D00FE2235
:100C9F00BC000BBE0029EF8DF084FFADF022E4CC39
:100CAF00F875F008EF2FFFEE33FEEC33FCEE9DEC02
:100CBF00984005FCEE9DFE0FD5F0E9E4CEFD22ED48
:100CCF00F8F5F0EE8420D21CFEADF075F008EF2F92
:100CDF00FFED33FD4007985006D5F0F222C398FD83
:050CEF000FD5F0EA2220
:100CF400C2D5EC30E709B2D5E4C39DFDE49CFCEE1B
:100D040030E715B2D5E4C39FFFE49EFE120C9FC3E7
:100D1400E49DFDE49CFC8003120C9F30D507C3E4E2
:060D24009FFFE49EFE2289
:0E0D2A00C3E49FFFE49EFEE49DFDE49CFC22DA
:00000001FF
